:1000680010E01BB91CE11AB91FE215B91FE314B956
:100078001FE318B910E017B91CE51CBD10E01DBD41
:10008800089510910B001EBD1DB517FFFDCF1EB5BD
:1000980010930C000895289815E0B12E0E94450091
:1000A8000E944500289A1C2D0895289815E0B12E25
:1000B8000E9445000E9445001C2D1170103010E070
:1000C80009F41FEF112311F40C945E00289A089587
:1000D800289816E0B12E0E944500289A08950E949B
:1000E8006C00289811E0B12E0E94450010E0B12E56
:1000F8000E944500289A0E94590008950E946C00A9
:10010800289811E0B12E0E9445001FE3B12E0E94ED
:100118004500289A0E94590008950E946C0028986A
:100128003B812A81198108810093870110938801F6
:100138002093890130938A0110E2B12E0E94450074
:1001480010918901B12E0E94450010918801B12EAD
:100158000E94450010918701B12E0E944500289AFF
:100168000E9459001C2D1072103010E009F01FEF8A
:10017800E894112309F068941091B80112F91093CA
:10018800B8010091B801112702FD1FEF10950895DD
:100198000E946C00289817ECB12E0E944500289AFE
:1001A8000E9459001C2D1072103010E009F01FEF4A
:1001B800E894112309F068941091B80112F910938A
:1001C800B8010091B801112702FD1FEF109508959D
:1001D800219709811A8101501040102F18830E941D
:1001E8006C0028983E812D811C810B81009387012A
:1001F800109388012093890130938A0112E0B12E6F
:100208000E94450010918901B12E0E94450010916D
:100218008801B12E0E94450010918701B12E0E94DD
:100228004500E7E0F0E0FA93EA9310E01083EF93DB
:10023800FF931A81FF91EF911A931081088101179A
:100248001FEF08F01127112311F00C943F01172D0F
:10025800ECE2F3E01F7F0027E10FF01F1081B12EC1
:100268000E944500E981FA811081139510831123BA
:1002780011F00C9422012396289A0E9459001C2DF3
:100288001072103010E009F01FEFE894112309F004
:1002980068941091B80112F91093B8010091B8014F
:1002A800112702FD1FEF1095089521970E9459000C
:1002B8000A811B8101501040102F18833F812E8125
:1002C8001D810C8100938701109388012093890177
:1002D80030938A0128981BE0B12E0E9445001091A6
:1002E8008901B12E0E94450010918801B12E0E940B
:1002F800450010918701B12E0E94450010E0B12EF3
:100308000E944500E7E0F0E0FA93EA9310E01083DA
:10031800EF93FF931A81FF91EF911A93108108814F
:1003280001171FEF08F01127112311F00C94C401D5
:100338000E9445001C81112311F40C94B001172D63
:100348001F931C2DECE2F2E0AF91AF7FBB27EA0FC1
:10035800FB1F10830C94BB01172D1F931C2DECE27F
:10036800F3E0AF91AF7FBB27EA0FFB1F1083E98152
:10037800FA81108113951083112311F00C949301C5
:100388002396289A0895289A0000289813E0B12EF9
:100398000E94450010918901B12E0E9445001091DC
:1003A8008801B12E0E94450010918701B12E0E944C
:1003B800450008951DE00E945A121AE00E945A1240
:1003C8000895CF93DF9318E0412A0AE512E11A93C2
:1003D8000A93EBE7FFE20E943914DF91CF91CF93A4
:1003E800DF9318E0412A0AE512E11A930A93009173
:1003F800540110915501CF93DF931A930A9310E09B
:100408001A9310E01A9310E21A93689443F86894C8
:1004180045F8E89454F855F80E948516DF91CF9175
:10042800DF91CF911DE30E945A120895CF93DF9375
:1004380018E0412A0AE512E11A930A93E5E6F1E089
:100448000E944214DF91CF910E94DE010895229705
:1004580010E00FEF00935401109355010E94E5013D
:10046800CF93DF9318E0412A0AE512E11A930A9321
:100478001C81CF93DF931A9310E01A9310E01A931C
:1004880010E21A93689443F80E944C14DF91CF91BC
:10049800DF91CF9110E20E945A12CF93DF9318E0B8
:1004A800412A0AE512E11A930A93E4E3F0E3EF9391
:1004B800FF931C81012F1127A9E0B0E0E89445F8CB
:1004C8000E943E17FF91EF91E00FF11F0E9439142F
:1004D800DF91CF910E94DE0108950E94E501CF933C
:1004E800DF9318E0412A0AE512E11A930A93ECE82F
:1004F800F1E00E944214DF91CF910E94DE0108953D
:1005080010916301112311F40C949F0216E00E94CC
:100518005A1210E00E945A120091590110915A0182
:100528000E945A120091590110915A01102F0E94ED
:100538005A120C94D602ECE8F1E0EF93FF9331964F
:10054800FA93EA9318E21A9317EF41221FEB41221C
:1005580000915C0110915D0120915E0130915F0175
:10056800CF93DF933A932A931A930A9310E01A933E
:1005780010E01A9310E21A93689445F8E89454F836
:1005880055F842F80E948C14DF91CF9118E21F931E
:1005980018810F91011B102FFF91EF911083239663
:1005A8000E94710208950091590110915A0117FF94
:1005B80003C03FEF2FEF02C03327222700935C01CF
:1005C80010935D0120935E0130935F010E948402C5
:1005D800089510916201012F11270093590110937A
:1005E8005A010E94D70208950E94E501ECE8F1E063
:1005F800EF93FF933196FA93EA9318E21A9317EF61
:1006080041221FEB412200915C0110915D01209174
:100618005E0130915F01CF93DF933A932A931A9347
:100628000A9310E01A9310E01A9310E21A93689450
:1006380045F8E89454F855F842F80E948C14DF9174
:10064800CF9118E21F9318810F91011B102FFF9172
:10065800EF9110832396CF93DF9318E0412A0AE5A0
:1006680012E11A930A93ECE8F1E00E944214DF9138
:10067800CF9110E20E945A121BE50E945A1214E20E
:100688000E945A12ECE8F1E0EF93FF933196FA9347
:10069800EA9318E21A9317EF41221FEB41220091C7
:1006A8005C0110915D0120915E0130915F01B801FC
:1006B800C901492F0E94F416482F0E94F416472FAB
:1006C8000E94F416462F0E94F41618E21F93188110
:1006D8000F91011B102FFF91EF9110832396CF9359
:1006E800DF9318E0412A0AE512E11A930A93ECE82D
:1006F800F1E00E944214DF91CF911DE50E945A1249
:100708000E94DE0108956497E2E0F1E01127F89471
:1007180011931193108347FC789410E0198710E027
:100728001B8B10E0188B1FEF1F8700E010E020E004
:1007380030E00093BC011093BD012093BE013093BB
:10074800BF0110E000E01B870A8710E000E0198372
:10075800088310E000E01B830A833F892E891D89E6
:100768000C893F832E831D830C83198510951123D3
:1007780011F40C94030410E000E01B870A87CF9360
:10078800DF93FE017396FA93EA9312E31A930E9499
:100798002312DF91CF9119871985112311F40C9435
:1007A800EC031B89113010E009F41FEF1F931B891C
:1007B800143010E009F41FEF0F91102B112311F4DE
:1007C8000C94EA0310E005E11B870A870C94F603F2
:1007D80015E10E945A12FE013A96A081B181119644
:1007E800A083B1830A851B85103009F4043110E019
:1007F80011F008F01FEF112311F40C94C30310E05B
:1008080000E01B870A871B89113010E009F41FEFED
:10081800112311F40C942E05CF93DF93FE017296E9
:10082800FA93EA9314E61A930E942312DF91CF9168
:100838001887CF93DF93FE017196FA93EA9312E338
:100848001A930E942312DF91CF9118871A890FEF0C
:10085800011B102F1F9319890F91011710E009F43C
:100868001FEF112311F40C942C0510E0188BE8E00D
:10087800F0E0FA93EA9310E010831FE71A931081CF
:10088800088101171FEF08F01127112311F00C94AC
:100898007404CF93DF93E9E0F0E0FA93EA9312E36C
:1008A8001A930E942312DF91CF911B871B891F93F4
:1008B800192D0F91100F1B8B182D1F93192DECE27A
:1008C800F3E0AF91AF7FBB27EA0FFB1F1083E981ED
:1008D800FA81108113951083112311F00C944404AC
:1008E8002396CF93DF93FE013F96FA93EA9312E3A0
:1008F8001A930E942312DF91CF911887CF93DF9329
:100908003F812E811D810C813A932A931A930A9371
:1009180010E000E81A930A930E94EC00DF91CF914F
:100928001095112311F40C94A004FE013296A081B5
:10093800B1811196A083B183CF93DF933F812E813C
:100948001D810C813A932A931A930A9310E000E8C8
:100958001A930A931FEF1A930E945901DF91CF91BE
:10096800E8E0F0E0FA93EA9310E010831FE71A93A7
:100978001081088101171FEF08F01127112311F0CA
:100988000C94F004182DECE2F2E01F7F0027E10F31
:10099800F01F10811F93182DECE2F3E01F7F002752
:1009A800E10FF01F10810F91011710E009F01FEF00
:1009B800112311F40C94E704FE013396A081B18150
:1009C8001196A083B183E981FA8110811395108370
:1009D800112311F00C94BD0423963F812E811D81B3
:1009E8000C8100581F4F2F4F3F4F3F832E831D838D
:1009F8000C830091BC011091BD012091BE01309182
:100A0800BF0100581F4F2F4F3F4F0093BC01109359
:100A1800BD012093BE013093BF0118891F931F8524
:100A28000F91011710E009F41FEF112311F40C9432
:100A3800220516E00E945A120C942C05FE013A96E3
:100A4800A081B1811196A083B18315E10E945A1249
:100A580010E01B8B10E019871B89143010E009F493
:100A68001FEF1F930A851B85103009F4053010E02D
:100A780011F008F01FEF0F91102B112311F40C94B3
:100A8800B9031DE00E945A12CF93DF93FE017396BB
:100A9800FA93EA9312E31A930E942312DF91CF91FB
:100AA800188716E00E945A120091BC011091BD01EE
:100AB8002091BE013091BF0100935C0110935D014C
:100AC80020935E0130935F010A851B85103009F47D
:100AD800053010E011F008F01FEF112311F40C9409
:100AE80097050FEF1FEF2FEF3FEF00935C01109377
:100AF8005D0120935E0130935F010E94E501CF9371
:100B0800DF9318E0412A0AE512E11A930A93EFE706
:100B1800FFE20E9439141DE00E9401171AE00E94AA
:100B28000117DF91CF911F851F9318890F91011726
:100B380010E009F01FEF112311F40C94C5050FEF15
:100B48001FEF2FEF3FEF00935C0110935D0120939F
:100B58005E0130935F010E94E501CF93DF9318E0B7
:100B6800412A0AE512E11A930A93E3E9FFE20E9497
:100B780039141DE00E9401171AE00E940117DF9145
:100B8800CF9108811981103009F4003010E009F084
:100B98001FEF112311F40C9422060FEF1FEF2FEF14
:100BA8003FEF00935C0110935D0120935E01309349
:100BB8005F010E94E501CF93DF9318E0412A0AE51F
:100BC80012E11A930A93EEEAFFE20E943914DF91C8
:100BD800CF91CF93DF9318E0412A0AE512E11A93E7
:100BE8000A930A811B81CF93DF931A930A9310E02B
:100BF8001A9310E01A9310E21A93689443F8E89451
:100C080045F8E89454F855F80E948516DF91CF917D
:100C1800DF91CF91CF93DF9318E0412A0AE512E1E3
:100C28001A930A93E4ECFFE20E9439141DE00E9433
:100C380001171AE00E940117DF91CF910A811B81E9
:100C4800103009F4003010E009F01FEF112311F4FF
:100C58000C947F060FEF1FEF2FEF3FEF00935C011F
:100C680010935D0120935E0130935F010E94E501BE
:100C7800CF93DF9318E0412A0AE512E11A930A9309
:100C8800E5EDFFE20E943914DF91CF91CF93DF9316
:100C980018E0412A0AE512E11A930A930C811D8192
:100CA800CF93DF931A930A9310E01A9310E01A93E4
:100CB80010E21A93689443F8E89445F8E89454F8D5
:100CC80055F80E948516DF91CF91DF91CF91CF9390
:100CD800DF9318E0412A0AE512E11A930A93E4EC3B
:100CE800FFE20E9439141DE00E9401171AE00E94D9
:100CF8000117DF91CF9108950E944F001F7E103099
:100D080010E009F01FEF112311F40C94A6060E94BD
:100D1800E501CF93DF9318E0412A0AE512E11A931F
:100D28000A93EAEEFFE20E9439141DE00E940117BF
:100D38001AE00E940117DF91CF911FEF0C94A906CA
:100D48000C94A90610E00C94A90608952297009126
:100D5800540110915501D8012AE030E0689445F813
:100D68000E9460178F01507821F0019509F41A95B7
:100D78001095102F18830091540110915501689413
:100D880042F8A0E0B0E05FEF0E949F1755233AF4C5
:100D9800A7E0B0E055270E949F1755230AF41FC00B
:100DA800ECECF1E0EF93FF931881012F1127000F6E
:100DB800111F000F111FFF91EF91E00FF11F01911B
:100DC80011912191319100935C0110935D01209361
:100DD8005E0130935F010E94F8020C944E086894FB
:100DE80042F8AAE0B0E05FEF0E949F1755233AF45B
:100DF800A1E1B0E055270E949F1755230AF41FC0B0
:100E0800ECEEF1E0EF93FF931881012F1127000F0B
:100E1800111F000F111FFF91EF91E00FF11F0191BA
:100E280011912191319100935C0110935D01209300
:100E38005E0130935F010E94F8020C944E0868949A
:100E480042F8A4E1B0E05FEF0E949F1755233AF4FF
:100E5800ABE1B0E055270E949F1755230AF41FC045
:100E6800ECE0F2E0EF93FF931881012F1127000FB8
:100E7800111F000F111FFF91EF91E00FF11F01915A
:100E880011912191319100935C0110935D012093A0
:100E98005E0130935F010E94F8020C944E081030F6
:100EA80011F00C946F070E3111F00C946F0700913C
:100EB8008701109188012091890130918A0100935E
:100EC8005C0110935D0120935E0130935F010E94E5
:100ED800F8020C944E08103011F00C948B070F3167
:100EE80011F00C948B070091C8011091C901209151
:100EF800CA013091CB0100935C0110935D012093EE
:100F08005E0130935F010E94F8020C944E08103085
:100F180011F00C94A707003211F00C94A707009168
:100F2800C4011091C5012091C6013091C7010093F9
:100F38005C0110935D0120935E0130935F010E9474
:100F4800F8020C944E08103011F00C94B7070132D7
:100F580011F00C94B70710914A01109362010E9496
:100F6800ED020C944E08103011F00C94C6070232B2
:100F780011F00C94C60716B1109362010E94ED029D
:100F88000C944E08103011F00C94DA070B3F11F056
:100F98000C94DA070091B9011091BA010093590134
:100FA80010935A010E94D7020C944E08103011F089
:100FB8000C94F6070D3F11F00C94F607CF93DF93CE
:100FC80018E0412A0AE512E11A930A93E5E6F1E0EE
:100FD8000E944214DF91CF910E94DE010C944E08CA
:100FE8000C944E08103011F00C9412080E3F11F0BA
:100FF8000C9412080E94E501CF93DF9318E0412A70
:101008000AE512E11A930A93ECE5FFE20E9439140B
:10101800DF91CF910E94DE010C944E08103011F040
:101028000C9424080F3F11F00C942408CF93DF93FD
:1010380010E01A930E942B02DF91CF910C944E0876
:10104800163211F00C943408003C11F00C9434085A
:101058000E944F00109362010E94ED020C944E080A
:10106800173211F00C9446080F3011F00C94460812
:10107800F8941FE7412204B7037F04BF0C944A1178
:101088000C944E08CF93DF9315E01A930E942B021D
:10109800DF91CF9108952397009154011091550144
:1010A800D8012AE030E0689445F80E9460178F0163
:1010B800507821F0019509F41A951095102F19838D
:1010C8000091540110915501689442F8A0E0B0E0F5
:1010D8005FEF0E949F1755233AF4A7E0B0E0552729
:1010E8000E949F1755230AF44FC0ECECF1E0EF93F0
:1010F800FF931981012F1127000F111F000F111FD6
:10110800FF91EF91E00FF11FEF93FF9300915C01C6
:1011180010915D0120915E0130915F01FF91EF9187
:101128000193119321933193E0E0F0E0EF93FF9363
:101138001981012F1127000F111F000F111FFF9197
:10114800EF91E00FF11FEF93FF9300915C01109175
:101158005D0120915E0130915F01FF91EF91D8010F
:101168000E94B31200915C0110915D0120915E0113
:1011780030915F01009387011093880120938901C2
:1011880030938A010C94D20A689442F8AAE0B0E03D
:101198005FEF0E949F1755233AF4A1E1B0E055276D
:1011A8000E949F1755230AF45FC0ECEEF1E0EF931D
:1011B800FF931981012F1127000F111F000F111F15
:1011C800FF91EF91E00FF11FEF93FF9300915C0106
:1011D80010915D0120915E0130915F01FF91EF91C7
:1011E8000193119321933193E0E2F0E0EF93FF93A1
:1011F8001981012F1127000F111F000F111FFF91D7
:10120800EF91E00FF11FEF93FF9300915C011091B4
:101218005D0120915E0130915F01FF91EF91D8014E
:101228000E94B31200915C0110915D0120915E0152
:1012380030915F010093C8011093C9012093CA013E
:101248003093CB010091C8011091C9012091CA01C6
:101258003091CB0100938701109388012093890175
:1012680030938A010C94D20A689442F8A4E1B0E061
:101278005FEF0E949F1755233AF4ABE1B0E0552782
:101288000E949F1755230AF45FC0ECE0F2E0EF9349
:10129800FF931981012F1127000F111F000F111F34
:1012A800FF91EF91E00FF11FEF93FF9300915C0125
:1012B80010915D0120915E0130915F01FF91EF91E6
:1012C8000193119321933193E0E4F0E0EF93FF93BE
:1012D8001981012F1127000F111F000F111FFF91F6
:1012E800EF91E00FF11FEF93FF9300915C011091D4
:1012F8005D0120915E0130915F01FF91EF91D8016E
:101308000E94B31200915C0110915D0120915E0171
:1013180030915F010093C4011093C5012093C60169
:101328003093C7010091C4011091C5012091C601F5
:101338003091C70100938701109388012093890198
:1013480030938A010C94D20A163211F00C94C20917
:10135800003C11F00C94C20910916201103010E0A9
:1013680009F41FEF112311F40C94BE090E947300B5
:101378000C94C0090E9482000C94D20A163211F013
:101388000C94CC090A3C11F00C94CC090C94D409A7
:10139800163211F00C94270A0B3C11F00C94270A12
:1013A8000E9480061095112311F40C94250A0091CF
:1013B8005C0110915D0120915E0130915F01ECE0CC
:1013C8000E948F1700935C0110935D0120935E01CA
:1013D80030935F01CF93DF9300915C0110915D0121
:1013E80020915E0130915F013A932A931A930A93F0
:1013F8000E948703DF91CF9100915C0110915D01FC
:1014080020915E0130915F0140E83427303829F49B
:10141800203019F4103009F400301FEF08F01127BC
:10142800112311F40C941F0A1091B8011460109341
:10143800B8010C94250A10E004E60E947C120E9470
:10144800F8020C94D20A163211F00C94310A043DB9
:1014580011F00C94310A0C94390A163211F00C94DC
:10146800880A053D11F00C94880A0E9480061095A0
:10147800112311F40C94860A00915C0110915D010E
:1014880020915E0130915F01ECE00E948F1700937C
:101498005C0110935D0120935E0130935F01CF934F
:1014A800DF9300915C0110915D0120915E01309104
:1014B8005F013A932A931A930A930E949100DF914D
:1014C800CF911095112311F40C94840A0E94E50120
:1014D800CF93DF9318E0412A0AE512E11A930A93A1
:1014E800E2E0F0E30E9439141DE00E9401171AE0BF
:1014F8000E940117DF91CF910C94FA0A0C94860A86
:101508000E94F8020C94D20A163211F00C94C80A00
:10151800063D11F00C94C80A0E948006109511230C
:1015280011F40C94C60A0E94CC001095112311F4F2
:101538000C94B80A0E94E501CF93DF9318E0412A82
:101548000AE512E11A930A93EBE1F0E30E943914D9
:101558001DE00E9401171AE00E940117DF91CF9148
:101568000C94FA0A0C94C60A00E010E020E030E07F
:1015780000935C0110935D0120935E0130935F013D
:101588000E94F8020C94D20ACF93DF9315E01A93C5
:101598000E942B02DF91CF910C94FA0A1091B701A7
:1015A8001F7E1093B7010091540110915501A0E8D6
:1015B8001A27103809F40A3F10E009F41FEF112325
:1015C80011F40C94EC0A1091B70110611093B70153
:1015D80010915801112311F40C94FA0ACF93DF9358
:1015E80010E01A930E942B02DF91CF910895219762
:1015F800ECE8F1E0EF93FF933196FA93EA9318E25F
:101608001A9317EF41221FEB4122ECE8F1E00E9408
:10161800161418E21F9318810F91011B102FFF91C8
:10162800EF9110832396FE01FA93EA9310E010835A
:101638001EE01A931081088101171FEF08F0112787
:10164800112311F00C94570BECE8F1E0EF93FF93A2
:10165800EEE8F0E3EF93FF931B81012F1127A4E03D
:10166800B0E0E89445F80E943E17FF91EF91E00F33
:10167800F11FBF91AF91689444F80E94DB1610E007
:1016880009F41FEF112311F40C944E0B1B812396C0
:101698000C94590BE981FA81108113951083112359
:1016A80011F00C941F0B23961FE008952297ECE885
:1016B800F1E0EF93FF933196FA93EA9318E21A93C5
:1016C80017EF41221FEB412218E21F9318810F9157
:1016D800011B102FFF91EF911083239610E01093B8
:1016E8005B0110E01883E5E6F1E010918601012F17
:1016F8001127E00FF11F1191103210E009F41FEFCC
:10170800112311F40C948F0B1091860113951093EB
:1017180086010C94770BE5E6F1E010918601012F24
:101728001127E00FF11F1191193339F028F41A32FB
:1017380018F040E0189401C041E010E009F41FEFF0
:10174800112311F40C94020C1FEF1883E8E0F0E069
:10175800FA93EA93109186011083EF93FF93E5E6DD
:10176800F1E01081FF91EF911A9310810881011720
:101778001FEF08F01127112311F00C94FF0BE5E679
:10178800F1E0182D012F1127E00FF11F11911C8393
:101798001C81193339F028F41A3218F040E01894F3
:1017A80001C041E010E009F41FEF112311F40C947B
:1017B800EF0B1C81712F61E010E006E10F931F937E
:1017C800ECE8F1E0EF93FF9318E21F9390E00E949A
:1017D800D6120C94F60B182D109386011B812396B4
:1017E8000C94820CE981FA811081139510831123DE
:1017F80011F00C94BA0B23960C94810CE8E0F0E0FD
:10180800FA93EA93109186011083EF93FF93E5E62C
:10181800F1E01081FF91EF911A931081088101176F
:101828001FEF08F01127112311F00C94800CE5E646
:10183800F1E0182D012F1127E00FF11F11911C83E2
:101848001C81123210E009F41FEF112311F40C94DB
:10185800320C1FEF10935B010C94770C1C81113430
:1018680010E008F01FEF1F9310915B010F91102BF0
:10187800112311F40C94710C1C81113221F01F33C7
:1018880011F0143201F010E009F41FEF112311F4E4
:101898000C94570C182D109386011B8123960C94D9
:1018A800820C0C94670C1C81712F61E010E006E13A
:1018B8000F931F93ECE8F1E0EF93FF9318E21F9367
:1018C80090E00E94D6121D81112311F40C946F0C24
:1018D8001FEF10935B010C94770C182D1093860161
:1018E8001B810C94820CE981FA8110811395108375
:1018F800112311F00C94120C239618810895219746
:10190800ECE8F1E01FEB4122E89441F800E00E9486
:10191800551300935C0110935D0120935E01309391
:101928005F0100915C0110915D0120915E01309191
:101938005F010093590110935A01009159011091C8
:101948005A01102F1093620108952C97E5E6F1E0F3
:10195800EF93FF93E3E3F0E3BF91AF91689444F80A
:101968000E94DB1610E009F41FEF112311F40C9408
:10197800C70CCF93DF9310E01A930E942B02DF91DC
:10198800CF910C948A0E11E21F93E5E6F1E0EF93F4
:10199800FF9361E0FF91EF910F910E9400141030C6
:1019A80010E011F008F01FEF109358011AE31F938D
:1019B800E5E6F1E0EF93FF9361E0FF91EF910F917E
:1019C8000E940014103010E011F008F01FEF1C8383
:1019D8001DE31F93E5E6F1E0EF93FF9361E0FF91CC
:1019E800EF910F910E9400141B871B85103010E0A7
:1019F80009F41FEF1883E5E6F1E0319611911D8394
:101A08001D811A3210E009F41FEF19831D8113326A
:101A180010E009F41FEF1A8311E0109386011A8170
:101A2800112311F40C941B0D12E0109386011C81F4
:101A3800112311F40C94420DCF93DF9310E01A9305
:101A48000E945A0BDF91CF91109186011395109344
:101A580086011981112311F40C94360D0E941A0283
:101A68000C94420DECE8F1E01FEB4122E89441F8B8
:101A780000E00E945513102F1093560119811095FC
:101A88001F93109156011F93109164010F91011734
:101A980010E009F01FEF0F9110231F931C810F9185
:101AA8001023112311F40C945D0D0E941A020C945A
:101AB8008A0E14E21F93E5E6F1E0EF93FF9361E0ED
:101AC800FF91EF910F910E9400141A871A85103028
:101AD80010E011F008F01FEF1B831B81112311F494
:101AE8000C94ED0DECE8F1E0EF93FF933196FA9347
:101AF800EA9318E21A9317EF41221FEB4122E5E619
:101B0800F1E0EF93FF931D851F5F1F9312E00F9184
:101B1800FF91EF910E94251418E21F9318810F91ED
:101B2800011B102FFF91EF9110832396ECE8F1E051
:101B38001FEB4122E89441F80FEF0E945513102F34
:101B4800188710E01987E8E0F0E0FA93EA9311E0CB
:101B58001083EF93FF931C851150FF91EF911A9317
:101B68001081088101171FEF08F01127112311F0C8
:101B78000C94D60DE5E6F1E0182D012F1127E00FA2
:101B8800F11F119118871C851F9318850F91102735
:101B98001C87E981FA81108113951083112311F0B4
:101BA8000C94B50D239619851F9318850F9101176D
:101BB80010E009F01FEF112311F40C94ED0DCF93F1
:101BC800DF9317E01A930E942B02DF91CF910C94B8
:101BD8008A0ECF93DF9310E01A930E945A0BDF917D
:101BE800CF91112311F40C94FF0D10E000E01F8336
:101BF8000E830C94350ECF93DF930E94FB0ADF917E
:101C0800CF9110934F0110914F011F3010E009F44C
:101C18001FEF112311F40C941B0ECF93DF9314E0E4
:101C28001A930E942B02DF91CF910C948A0EEEEC4E
:101C3800F0E3EF93FF9310914F01012F1127000F4D
:101C4800111FFF91EF91E00FF11F059114911F8370
:101C58000E83CF93DF9310E01A930E945A0BDF9103
:101C6800CF91ECE8F1E01FEB4122E89441F800E065
:101C78000E9455130F931F930E811F813F912F913F
:101C8800020F131F0093540110935501188111235B
:101C980011F40C94570ECF93DF930E94AA06DF919C
:101CA800CF910C948A0E1B851F5F10938601CF93EA
:101CB800DF931FEF1A930E945A0BDF91CF911123E4
:101CC80011F40C946F0ECF93DF930E94830CDF9175
:101CD800CF910C94840E00E010E020E030E00093F7
:101CE8005C0110935D0120935E0130935F0110E069
:101CF80000E00093590110935A0110E0109362011B
:101D0800CF93DF930E944F08DF91CF9108952297D8
:101D18000E94361219831981183011F00C94B00EF4
:101D2800E5E6F1E01081103010E011F008F01FEF47
:101D3800112311F40C94AE0EE5E6F1E0EF93FF9356
:101D4800E5E6F1E010811150FF91EF911F3108F0A5
:101D58001FE111930C94F10E1D3011F00C94D60E66
:101D680010E010936301CF93DF930E94A90CDF91D9
:101D7800CF91E5E6F1E0EF93FF933196FA93EA937A
:101D88001FE11A9317EF41221FEB41221FE11F9316
:101D980018810F91011B102FFF91EF91108323964B
:101DA8000C94F10E103210F40C94F10E1F3719F048
:101DB80010F00C94F10E1981712F61E010E006E12A
:101DC8000F931F93E5E6F1E0EF93FF931FE11F9355
:101DD80090E00E94D6120C94F10E0895ECECF1E01C
:101DE800EF93FF9310914A01012F1127000F111F44
:101DF800000F111FFF91EF91E00FF11F0191119159
:101E080021913191009387011093880120938901D2
:101E180030938A01ECEEF1E0EF93FF9310914A01C1
:101E2800012F1127000F111F000F111FFF91EF91B4
:101E3800E00FF11F01911191219131910093C80197
:101E48001093C9012093CA013093CB01ECE0F2E072
:101E5800EF93FF9310914A01012F1127000F111FD3
:101E6800000F111FFF91EF91E00FF11F01911191E8
:101E7800219131910093C4011093C5012093C601AB
:101E88003093C70108950E94340010E8412A7894DD
:101E98000E94E501CF93DF9318E0412A0AE512E199
:101EA8001A930A93ECE5FFE20E943914DF91CF916F
:101EB80010E000E81093890000938800E8E0F0E063
:101EC800FA93EA9310E0108317E01A9310810881BF
:101ED80001171FEF08F01127112311F00C94F50FCB
:101EE800ECECF1E0EF93FF93182D012F1127000F71
:101EF800111F000F111FFF91EF91E00FF11FEF93DA
:101F0800FF93E0E0F0E0EF93FF93182D012F1127E6
:101F1800000F111F000F111FFF91EF91E00FF11F2C
:101F28000E94C812FF91EF9101931193219331936D
:101F3800ECEEF1E0EF93FF93182D012F1127000F1E
:101F4800111F000F111FFF91EF91E00FF11FEF9389
:101F5800FF93E0E2F0E0EF93FF93182D012F112794
:101F6800000F111F000F111FFF91EF91E00FF11FDC
:101F78000E94C812FF91EF9101931193219331931D
:101F8800ECE0F2E0EF93FF93182D012F1127000FDB
:101F9800111F000F111FFF91EF91E00FF11FEF9339
:101FA800FF93E0E4F0E0EF93FF93182D012F112742
:101FB800000F111F000F111FFF91EF91E00FF11F8C
:101FC8000E94C812FF91EF910193119321933193CD
:101FD800E981FA81108113951083112311F00C9473
:101FE8006B0F239610E0109349010E94531211239E
:101FF80011F40C940510CF93DF930E948B0EDF91A0
:10200800CF9116B1137010934801109148011F9396
:10201800109149010F91011710E009F01FEF1F936C
:1020280010914801133010E009F41FEF0F91102BA5
:10203800112311F40C94A91010914801133010E0E9
:1020480009F41FEF112311F40C945910112770E0B3
:102058007A1510F4AA941FEF5B9810914E01112382
:1020680011F40C94591010914B01112311F40C9494
:10207800421013E010934A010C94451014E0109399
:102088004A010E94F20E10E010934D0110E01093E7
:102098004E011A2D103010E009F41FEF112311F42E
:1020A8000C94591010E010934B010091480111272E
:1020B80000FD1FEF1095112311F40C946E1010E021
:1020C80010934A010E94F20E1FEF10934C011FEF6C
:1020D80010934E0100914801112701FD1FEF109543
:1020E800112311F40C94A61011E010934A010E94D8
:1020F800F20E1FEF10934E011FEFA12E0091480121
:10210800112700FD1FEF1095112311F40C94931063
:1021180012E010934A010E94F20E0C94981011E0FC
:1021280010934A010E94F20E10914B01112311F4F1
:102138000C94A1105A9A0C94A4101FEF10934D01FF
:102148000C94A7105A980E94C70110914801109347
:10215800490110914D01112311F40C94B61012E0AD
:102168000E948B1210914C01112311F40C94391117
:1021780000918701109188012091890130918A018D
:102188000F931F932F933F930091C4011091C501A2
:102198002091C6013091C701D801F9013F912F91D3
:1021A8001F910F9140E8F42734273F1729F42E1781
:1021B80019F41B1709F40A1710E011F008F01FEFC3
:1021C800112311F40C940A110091C8011091C9014E
:1021D8002091CA013091CB010093870110938801A7
:1021E8002093890130938A010E94C70110914A0106
:1021F800103010E009F41FEF112311F40C940811AA
:102208001FEF10934B015B9A0C941D11A09187014D
:10221800B0918801E0918901F0918A01119608F442
:102228003196A0938701B0938801E0938901F093D8
:102238008A0110918A011F3F10E009F41FEF112352
:1022480011F40C94351110E010934C0110E0109328
:102258004D0110E010934B0110E8C12E289A0C9400
:1022680037110E9445000C943C1110E8C12E289AA1
:10227800109184001078E1F3109184001078E1F750
:10228800C09288000C94F90F0000FECFF89414E077
:102298000BE61EBF0DBF1127E0E1F0E0A0E0B0E0C3
:1022A8003196319711F01D93FCCFA0E0B1E0E0E04A
:1022B800F4E03196319711F01D93FCCFCBEAD4E0CE
:1022C800F8941FE7412213E81093000116BD14E0AB
:1022D80015BD11E010936E00219A11271093850007
:1022E80010938400109389001093880011E81093CC
:1022F800800011E01093810018E11093C10010E1F3
:102308001093C40010E01093C50010E01093020170
:1023180010930301109304011091C10010681093E9
:10232800C10010E010932501109326011093270196
:1023380016E01093C2001091C600442455240C9452
:10234800470FEF93FF930F931F931FB71F9310919E
:10235800000106B5100F16BD1FE7412210910101BB
:10236800112319F01A951093010110E8412A1F91C1
:102378001FBF1F910F91FF91EF911895EF93FF9356
:102388000F931F931FB71F9310912701112331F447
:102398001091C1001F7D1093C1001BC00091260140
:1023A8001127E8E2F1E0E00FF11F10811093C60059
:1023B800109127011A951093270129F41091C10053
:1023C8001F7D1093C1000395003209F40027009384
:1023D80026011F911FBF1F910F91FF91EF91189533
:1023E800EF93FF930F931F931FB71F93109104014F
:1023F800103219F40091C6001BC01091C6001F933B
:10240800112700910201E5E0F1E0E00FF11F1F91B3
:102418001083109104011395109304010395003261
:1024280009F40027009302010091C00007FDDECFE8
:102438001F911FBF1F910F91FF91EF911895188160
:10244800109301012CD0112329F4109101011123BB
:10245800C9F7089507D0E981FA811193FA83E983CE
:102468001FEF0895109104011123E1F30091030176
:102478001127E5E0F1E0E00FF11F1081F894E091F9
:102488000401EA95E093040147FC78940091030164
:102498000395003209F400270093030108951127DA
:1024A80000910401002309F0109508950091270177
:1024B8000032E1F3F89400912501E8E2F1E0E00F41
:1024C8000027F01F1083009127010395009327012F
:1024D800009125010395003209F400270093250196
:1024E8000091C10000620093C10047FC78940895F0
:1024F800A80111274117510749F00AE71CE00150CC
:1025080010400000E1F741505040B9F708951123F9
:1025180031F006E20A950000E9F71A95D1F7089517
:102528002150304018F011911D93FACF089547FCBF
:102538007894F999FCCFF894F999F9CF0895F7DFD1
:102548004F93E1BDF2BDF89A000040B5141719F099
:1025580010BDFA9AF99A4F9147FC789408951A2F6A
:10256800EEDF1B2F3196EBDF122F3196E8DF132FAA
:102578003196E5DF0895DBDFE1BDF2BDF89A000092
:1025880010B547FC789408950E94BF12012F319628
:10259800F2DFA12F3196EFDF212F3196ECDF312FBB
:1025A8001A2F08953F912F910F91BF91AF91FF91ED
:1025B800EF912F933F93892F807101F01C91139510
:1025C80009C03F912F910F91BF91AF91FF91EF916A
:1025D8002F933F93892F8370882359F0869539F478
:1025E8001F930E94BF12312F1F91319603C035915E
:1025F80001C03191332331F0892F807101F02C9182
:10260800011708F40895402F411B542F431B58F11C
:10261800211730F4632F620F061708F0062F23C026
:10262800AF93BF93EF93FF93522F511B541708F4A6
:10263800452F5527A10FB51FA40FB51F1196FD01F2
:10264800E30FF51F542F5395892F807101F00E90D9
:1026580002925A95E1F7FF91EF91BF91AF91012F47
:10266800030F040F11F4340F3395892F807101F093
:102678000C932227A10FB21F892F8370882349F05A
:10268800869529F40E94BF12012E319603C0059049
:1026980001C00190892F807101F00D923A9561F780
:1026A800089533272227BB27AA2746FA26F40E9433
:1026B800BF12319601C01191112319F41127002777
:1026C8000895512F002311F0539571C046FA26F44E
:1026D8000E94BF12319601C01191E89442F81D3250
:1026E80061F45A9559F3689442F846FA26F40E9420
:1026F800BF12319601C0119111C01B3261F45A9575
:10270800E9F2E89442F846FA26F40E94BF1231969C
:1027180001C0119103C0143209F449C0052F0A956C
:102728006AF255277727992788270F9308C00F93B0
:1027380046FA26F40E94BF12319601C01191103357
:1027480010F11A3300F51053412F8D01000F111F9E
:10275800771F991F000F111F771F991F0A0F1B1F43
:10276800781F981F720F931F000F111F771F991F53
:10277800040F151F781F981FD801272F392F0F9185
:102788000A954AF0D4CF0F91689441F81127002791
:102798003327222708958D0142FA46F4015010404C
:1027A8002040304020953095109500950895E89484
:1027B80042F85A95D9F3593038F746FA26F40E9468
:1027C800BF12319601C01191113608F01052103322
:1027D800D8F21A3328F01134B8F21734A8F6175F74
:1027E8001F7004E0AA0FBB1F221F331F0A95D1F7E1
:1027F800A12B5A9511F7CFCF1127B081BB2389F0B0
:10280800662309F46395B61760F0E60FF11F6A9521
:10281800B61B162F1395A1910A1719F0BA95D1F77F
:10282800112708951191112359F0B12F11911136E3
:1028380018F01B3708F41F7D0E940117BA95B1F7ED
:102848000895112389F0B081BB2371F0B01B60F0AB
:10285800B395AA27E00FFA1FB11708F0B12F11910D
:102868000E940117BA95D9F70895B591BB2329F0AD
:1028780015910E940117BA95D9F70895119111235E
:1028880031F0B12F11910E940117BA95D9F7089527
:10289800CF93DF9326970985112798010F7022950A
:1028A8002F70B901660F771F660F771FA801461BA7
:1028B800570B4451504048835983A901440F551F71
:1028C800465250404A835B8344E04C831D83FE019B
:1028D80012E080819181A281B38199231AF40A962A
:1028E8001197FBCF81939193CD011A9519F0A2818D
:1028F800B381F3CF8193919328853F814E8153E033
:1029080080E0FE01DE011A962FD1DF91CF91089564
:10291800CF93DF936C97DE015496FE0154FA16F0BC
:102928007F9601C0B396882745FA9EF433813323F6
:1029380082F48DE2228111810081015010402040F3
:10294800304000951095209530950083118322839F
:10295800338342FA0EF48DE224E08F9300810F70E6
:102968000D93019102950F700D932A95B9F7B0E078
:10297800FE017496618170E04281640F7B1F438180
:10298800640F7B1F4481640F7B1F4581640F7B1F8D
:102998004681640F7B1F4781640F7B1F660F771F7B
:1029A800660F771F40815527461B570B44515040EF
:1029B80048835983618177274681640F7B1F660F9F
:1029C800771F228107811127020F1B1F7ED1600FFD
:1029D800711F44815527440F551F440F551F640F1D
:1029E800751F0581112786D1600F711F6C5A7140C0
:1029F8006A837B83628177274681640F7B1F660F1A
:102A0800771F4381640F7B1F048111274581040FC1
:102A18001B1F53D1600F711F47815527440F551F46
:102A2800440F551F640F751F6F5171406C837D8370
:102A380063817727660F771F660F771F0481112739
:102A48004781040F1B1F39D1600F711F05811127A2
:102A580051D1600F711F068111273FD1600F711F7F
:102A6800655B71406E837F8365817727660F771F6B
:102A7800660F771F0481112728D1600F711F068107
:102A880011272BD1600F711F0781112710D1600FFB
:102A9800711F6F5271406887798767817727660F42
:102AA800771F660F771F0681112717D1600F711FD7
:102AB800655A70406A877B87658177270681112769
:102AC80004D1600F711F0781112714D1600F711F86
:102AD800665E70406C877D8766817727078111273E
:102AE800F4D0600F711F695670406E877F876781C9
:102AF8007727660F771F65527040688B798B65E082
:102B080070E06A8B7B8BFE0119E080819181A28144
:102B1800B38199231AF40A961197FBCF8193919365
:102B2800CD011A9519F0A281B381F3CF81939193C6
:102B38008F91FE01DE0154FA36F42E8D30E04C8D73
:102B48005AE097960DC055FA36F429E030E040E394
:102B58005AE0979605C02E8D3D8D4C8D5AE0939680
:102B680003D0DF91CF910895AF93BF931D910D913D
:102B78006D91DF016A930A931A93882319F022232F
:102B880009F02A95652F752F770F7A950027A70FDB
:102B9800B01F1E91112319F411976A95D1F7662376
:102BA80011F4119663951296332321F4222309F028
:102BB80045C057C0222309F02A950027DF013517A1
:102BC80080F4732F770FA70FB01F1EE21E933617DE
:102BD80010F0632F6395762F770FDF01A70FB01FD3
:102BE8002DC0A70FB01F1196732F7E5F271720F0F7
:102BF800022F071B039501C00027202F002329F06F
:102C0800142F0E9401170A95F9CF732F751B652F92
:102C1800270F882329F0182F0E940117882723954A
:102C28002E5F10E30E9401171EE20E94011710E3B5
:102C38007723B9F00E9401177A95FACF621710F03E
:102C480022270FC0261B022F55FA36F468A16017F9
:102C580008F4061B601B68A3142F0E9401170A952D
:102C6800D9F755FA1EF468A1662381F0882319F074
:102C7800182F0E9401171E91112311F00E940117AD
:102C88001E9110630E9401176A95A9F754FA36F449
:102C980018A1112319F01EE20E940117BF91AF91EC
:102CA80018811D9319811D931A811D930895980108
:102CB800000F111F020F131F08959801000F111F15
:102CC800000F111F020F131F0895000F111F980105
:102CD800000F111F020F131F08959801A801000F7C
:102CE800111F000F111F220F331F020F131F040F94
:102CF800151F0895000F111F000F111F000F111F3E
:102D08000895CF93DF932A97AD85BE85882745FA26
:102D18003EF4BB232AF48DE2A150B040A095B095B3
:102D28008F938B2F82958F708051382F380F8E514B
:102D3800282F8E5C082F8B2F8F70280F280F080FD5
:102D48008751182F180F180F8A2F82958F70180F18
:102D5800080F111F001F00958894001F8A2F8F707D
:102D6800080F331F87E0482F8AE0080F1A95E8F705
:102D7800180F2A95E8F7280F3A95E8F7380F4A957B
:102D8800E8F7DE01FF27E0E195E070E081918D939F
:102D98007D939A95D9F72C853B854A8555E08F9187
:102DA800FE01DE011F96E0DEDF91CF9108950D91BF
:102DB80044FC02C0019001C00590001511F09894E0
:102DC8000895002311F4189408950A951D9144FC60
:102DD80002C0019001C00590101599F398940895C8
:102DE800B2E04295142F1F701A3008F0195F105D79
:102DF8000E940117BA95A9F70895EF93FF9343FA34
:102E0800DEF01F93E981FA811881112331F41F91B3
:102E1800689441F8FF91EF9108951A9518831F91CE
:102E280046FA16F0119303C00E94A3123196FA8352
:102E3800E983FF91EF910895E881F9811F930F933A
:102E48002F933F93AF93BF936F937F934F935F936A
:102E58008F939F9309959F918F915F914F917F9148
:102E68006F91BF91AF913F912F910F911F91FF915A
:102E7800EF9108959801442745FA86F4BD01370279
:102E8800F001269F80013603F40B100DE11DF41F9D
:102E98007203F40B100DE11DF41F08953B9FF00120
:102EA8002A9F80013A9F100DE11DF41F2B9F100DE2
:102EB800E11DF41F08959801552745FA96F45B2FF4
:102EC800432F4B27E89447FF45F837FF04C0219567
:102ED80009F43A953095B7FF04C0A19509F4BA955D
:102EE800B095EE27FF1B11E1AA1FBB1F1A9541F4ED
:102EF8008D0145FA26F4019509F41A95109508955F
:102F0800EE1FFF1FE21BF30B20F4E20FF31F889460
:102F1800EBCF0894E9CFEE2369F0E03228F01127CF
:102F28000027222733270895000F111F221F331F60
:102F3800EA95D1F708951B172CF049F40A1710F0F9
:102F480031F406C0539542FA0EF08D0101C05A952E
:102F5800089518951E312E3030205B4E4F49534549
:102F6800504C415920627920434D2031312F323065
:102F780031315D0323303A132D31205B584D4F44D6
:102F8800454D2054696D656F75745D1A2D31205B50
:102F9800584D4F44454D20436865636B73756D20EC
:102FA8004572726F725D152D37205B444620566559
:102FB80072696679204572726F723A2010204572E4
:102FC800726F7273206F6363757265645D142D3759
:102FD800205B4446205772697465204572726F728F
:102FE8003A20172D36205B44462050726F74656373
:102FF800746564204572726F725D182D34205B44CD
:103008004620426C6F636B4572617365204572722E
:103018006F725D172D33205B44462046756C6C45F6
:1030280072617365204572726F725D00045B4F4B6D
:103038005D00000000055B5553525D000000065B13
:10304800425553595D0000065B46494C455D0000FA
:10305800085B434D444552525D085B50415245520E
:10306800525D085B4C4F434B45445D085B43484BFE
:1030780053554D5D065B465047415D0000075B4474
:10308800464552525D00035354520349444E03537C
:1030980044420353444C0353444503504C5903538F
:1030A8005450034446530344465803444645035288
:1030B80053540357454E0345524303534244035266
:1030C800454D034E4F50FF00FE0000000A0014005B
:1030D8001E002800C026CA26D4260F27FA00FB00A7
:0630E800FC00FD00FD00EC
:100000000C944A110C94AD170C94AD170C94AD17C9
:100010000C94AD170C94AD170C94AD170C94AD1750
:100020000C94AD170C94AD170C94AD170C94AD1740
:100030000C94AD170C94AD170C94AD170C94AD1730
:100040000C94A5110C94AD170C94F4110C94C211DE
:100050000C94AD170C94AD170C94AD170C94AD1710
:080060000C94AD170C94AD17D0
:00000001FF
